:020000040800F2
:10000000800A0020390200087702000879020008FF
:100010007B0200087D0200087F020008000000004B
:100020000000000000000000000000008102000845
:100030008302000800000000850200088702000813
:100040008902000889020008890200088902000864
:100050008902000889020008890200088902000854
:100060008902000889020008890200088902000844
:100070008902000889020008890200088902000834
:100080008902000889020008890200088902000824
:100090008902000889020008890200088902000814
:1000A0008902000889020008890200088902000804
:1000B00089020008890200088902000889020008F4
:1000C00089020008890200088902000889020008E4
:1000D00089020008890200088902000889020008D4
:1000E00089020008890200088902000889020008C4
:1000F00089020008890200088902000889020008B4
:1001000089020008890200088902000889020008A3
:100110008902000889020008890200088902000893
:100120008902000889020008890200088902000883
:100130008902000889020008890200088902000873
:100140008902000889020008890200088902000863
:100150008902000889020008890200088902000853
:100160008902000889020008890200088902000843
:1001700089020008890200088902000800000000C6
:10018000890200088902000800F002F800F044F833
:1001900014A696E8000CB244B344DA4501D100F04D
:1001A0003BF8BAE80F000FA696E83000A5EB04056F
:1001B00004EB0607AAEB0704A7F101074FEA1515A0
:1001C0004FEA3414A4F10104AC4201D300F024F846
:1001D00013F0010F18BFFB1A43F0010300F001F800
:1001E000DBE71847F42700000428000070470000F0
:1001F0000023002400250026103A28BF78C1FBD830
:10020000520728BF30C148BF0B6070471FB501F0CF
:1002100049F91FBD10B510BD00F0ACF81146FFF74D
:10022000F5FF00F07BFE00F0CAF803B4FFF7F2FF21
:1002300003BC00F0CDF8000017481849184B99424C
:100240003CBF50F8042B41F8042BF8D3154B16494A
:100250004FF000028B4238BF43F8042BFAD3DFF88B
:100260004C00016841F470010160BFF34F8FBFF390
:100270006F8F0F480047FEE7FEE7FEE7FEE7FEE769
:10028000FEE7FEE7FEE7FEE7FEE7000009480A4951
:100290000A4A0B4B70470000E829000800000020C4
:1002A0000000002000000020800A002088ED00E00F
:1002B0008901000880040020800A002080060020B8
:1002C0008006002002F0FF0343EA032242EA0242D2
:1002D00000F005B87047704770474FF000020429DE
:1002E000C0F0128010F0030C00F01B80CCF1040C65
:1002F000BCF1020F18BF00F8012BA8BF20F8022B99
:10030000A1EB0C0100F00DB85FEAC17C24BF00F83E
:10031000012B00F8012B48BF00F8012B70474FF06C
:10032000000200B5134694469646203922BFA0E845
:100330000C50A0E80C50B1F12001BFF4F7AF090751
:1003400028BFA0E80C5048BF0CC05DF804EB890042
:1003500028BF40F8042B08BF704748BF20F8022B85
:1003600011F0804F18BF00F8012B7047004870470C
:10037000000000207546FFF7F9FFAE46050069460C
:10038000534620F00700854618B020B5FFF77EFFE2
:10039000BDE820404FF000064FF000074FF0000886
:1003A0004FF0000BAC46ACE8C009ACE8C009ACE8C3
:1003B000C009ACE8C00921F007018D46704710B5AF
:1003C0000446AFF300802046BDE81040FFF72DBF84
:1003D00001491820ABBEFEE726000200704700006E
:1003E00081B000200090FFE700980F280CD8FFE7AD
:1003F000009A40F26741C2F2000120208854FFE7D2
:10040000009801300090EFE740F26741C2F200012E
:100410000020087440F27841C2F20001086001B087
:100420007047000040F27840C2F20000006878B1E6
:10043000FFE740F27840C2F2000001680139016034
:10044000026840F26741C2F2000120208854FFE7B1
:100450007047000082B08DF8070040F27840C2F289
:100460000000006810281CD3FFE700200090FFE781
:1004700000980E280DD8FFE7009A40F26741C2F2BB
:100480000001881840788854FFE7009801300090F8
:10049000EEE79DF8070040F26741C2F20001C87321
:1004A0000FE09DF8070040F27841C2F200010B68AE
:1004B00040F26742C2F20002D0540868013008607E
:1004C000FFE702B07047000041F24C01C4F20201A4
:1004D000086840F00400086040F60001C4F600011E
:1004E000086820F0FF000860086840F055000860C8
:1004F00008684FF6FF42CFF60F421040086040F602
:100500000401C4F60001086820F00F00086040F6FE
:100510001401C4F60001086820F00F00086070475D
:1005200080B582B000F072FC8DF80600142000F057
:100530009BFF00F06BFC8DF805009DF806009DF810
:100540000510884205D1FFE79DF806008DF80700E9
:1005500003E0FF208DF80700FFE79DF8070002B0D9
:1005600080BD000041F24C01C4F20201086840F075
:10057000010008604FF09041086820F44060086076
:10058000086840F4806008600821C4F6000108682B
:1005900020F440600860086840F44060086004216E
:1005A000C4F60001086820F0200008600C21C4F6A1
:1005B0000001086820F44060086070471421C4F608
:1005C0000001086840F02000086070471421C4F65C
:1005D0000001086880F020000860704781B000903A
:1005E0004EF21001CEF20001002008604EF214031A
:1005F000CEF2000343F67F02C0F201021A604EF20F
:100600001802CEF20002106005200860FFE7009893
:1006100078B1FFE7FFE74EF21000CEF2000000686D
:10062000C003002801D4FFE7F5E7009801380090E7
:10063000EDE74EF21001CEF200010020086001B09B
:100640007047000040F26640C2F200000078704738
:1006500041F20001C4F20201086840F480700860B1
:10066000FFE741F20000C4F20200006840050028E4
:1006700001D4FFE7F5E741F24C01C4F2020108683A
:1006800040F00200086041F25801C4F2020108681B
:1006900040F40010086040F20041C4F60001086810
:1006A00020F470200860086840F42020086040F2C0
:1006B0000441C4F60001086840F44070086040F24C
:1006C0000841C4F60001086820F47020086008683A
:1006D00040F47020086040F20C41C4F60001086844
:1006E00020F470200860086840F4A020086040F200
:1006F0002441C4F60001086820F0FF000860086883
:1007000040F04400086041F23801C4F20201086878
:1007100040F400100860086820F40010086041F2FE
:100720008801C4F20201086820F44050086008689B
:1007300040F40050086045F20041C4F2000108682E
:1007400020F00100086045F21042C4F2000240F6B9
:100750001370C3F242001060086840F001000860A6
:1007600040F26641C2F200010020087070470000AC
:1007700082B044F24020C0F20F000090FFE745F243
:100780001840C4F200000068000400280BD5FFE701
:10079000009820B9FFE701208DF8070007E00098D6
:1007A00001380090EBE700208DF80700FFE79DF887
:1007B000070002B07047000083B0019044F240206F
:1007C000C0F20F000090FFE745F21840C4F20000AD
:1007D00000680199084232D1FFE745F21840C4F29F
:1007E00000000068C00600280AD5FFE745F21C415A
:1007F000C4F200013020086002208DF80B0022E0D6
:1008000045F21840C4F20000006810F4407F0BD09D
:10081000FFE745F21C41C4F200014FF44C70086040
:1008200003208DF80B000EE0009820B9FFE70120AF
:100830008DF80B0007E0009801380090C4E7002015
:100840008DF80B00FFE79DF80B0003B07047000028
:1008500080B584B08DF80E000291ADF806200298A4
:1008600020B9FFE7BDF8060028B9FFE7BDF806008C
:10087000FF280AD3FFE740F26640C2F200000421DD
:10088000017000788DF80F009FE0BDF80600013080
:10089000ADF80000FFF76CFF8DF805009DF805002E
:1008A00060B1FFE79DF8050040F26641C2F2000129
:1008B00008709DF805008DF80F0086E045F21C4198
:1008C000C4F200014FF44C700860BDF800107820AD
:1008D000C0F2002040EA014045F20441C4F20001A8
:1008E0000860086840F4005008600220FFF764FFC9
:1008F0008DF805009DF8050060B1FFE79DF8050043
:1009000040F26641C2F2000108709DF805008DF8C2
:100910000F005AE09DF80E0045F22841C4F2000194
:1009200008600020ADF80200FFE7BDF80200BDF846
:100930000610884225DAFFE70220FFF73DFF8DF819
:1009400005009DF8050060B1FFE79DF8050040F245
:100950006641C2F2000108709DF805008DF80F0095
:1009600033E00298BDF80210405C45F22841C4F221
:1009700000010860FFE7BDF802000130ADF8020099
:10098000D3E72020FFF718FF8DF805009DF805003C
:1009900060B1FFE79DF8050040F26641C2F2000138
:1009A00008709DF805008DF80F000EE045F21C411F
:1009B000C4F200012020086040F26641C2F200014A
:1009C000002008708DF80F00FFE79DF80F0004B0BD
:1009D00080BD000080B582B08DF8070000200DF1C9
:1009E00007010122FFF734FF02B080BD80B582B05D
:1009F0000190ADF802100199BDF802204020FFF7E8
:100A000027FF02B080BD000080B584B000200290B6
:100A100000F03CFB0299084600F0CAFB42F6881041
:100A2000C0F60000016842688368EC46012003902C
:100A3000CCF8000042F6D010C0F6000000F0DEFC5A
:100A40000298182100F0B4FB039842F69413C0F604
:100A5000000319685A689B68EC46CCF8000040F225
:100A60006740C2F2000000F0C9FC00F0D5FB04B002
:100A700080BD000080B582B08DF807009DF80700AA
:100A8000FF2803D1FFE7FFF7CDFC04E09DF8070046
:100A9000FFF7E0FCFFE7FFF7B7FFFFF797FD02B0B6
:100AA00080BD000083B042F20001C4F20201086878
:100AB00020F007000860086840F00200086041F27A
:100AC0000001C4F20201086840F480700860FFE78A
:100AD00041F20000C4F2020000684005002801D481
:100AE000FFE7F5E71020029041F20401C4F2020191
:100AF000086820F0F8500860029A086840EA02602E
:100B0000086041F20001C4F20201086820F0807020
:100B10000860FFE741F20000C4F2020000688001B3
:100B2000002801D5FFE7F5E741F20C01C4F202010C
:100B30000191086820F003000860086840F0020096
:100B400008600868142262F30E2008600868012219
:100B500062F306100860086820F0C060086008684A
:100B600040F08070086041F20001C4F202010868A0
:100B700040F080700860FFE741F20000C4F202001C
:100B800000688001002801D4FFE7F5E741F2080181
:100B9000C4F20201086820F003000860086840F011
:100BA00003000860FFE741F20800C4F20200006899
:100BB00000F00C000C2801D0FFE7F4E741F2080137
:100BC000C4F20201086820F0F0000860086820F410
:100BD000E0600860086820F46050086041F200019D
:100BE000C4F20201086820F080600860FFE741F26B
:100BF0000000C4F2020000684001002801D5FFE7B0
:100C0000F5E741F21001C4F202010091086820F4F6
:100C1000FE400860086840F4C0500860086840F46E
:100C200000300860086840F48030086041F200013C
:100C3000C4F20201086840F080600860FFE741F2FA
:100C40000000C4F2020000684001002801D4FFE760
:100C5000F5E741F28801C4F20201086820F440007F
:100C6000086041F26001C4F20201086840F400101B
:100C7000086003B07047000041F24C01C4F2020169
:100C8000086840F0010008604FF09041086820F0CB
:100C9000F0000860086840F0A00008602021C4F659
:100CA0000001086820F47F400860086840F4EE40C6
:100CB00008600821C4F60001086840F0F0000860F0
:100CC0000C21C4F60001086820F0F000086004213F
:100CD000C4F60001086820F00C00086070470000AE
:100CE00080B541F25801C4F20201086840F40030B6
:100CF000086041F28801C4F20201086820F00C008B
:100D00000860086840F004000860FFF7B5FF44F28F
:100D10000040C4F2000000F001F880BD81B00090F6
:100D20000099086820F0010008600099086820F028
:100D3000102008600099086820F4004008600099BD
:100D4000486820F440504860009942F28D00C86025
:100D50000099086840F00C000860009844F60041D3
:100D6000C4F20001884224D1FFE70099086840F0EE
:100D7000200008600099086820F040000860009991
:100D8000086820F0100008600099086820F08000D2
:100D900008600099086820F480700860009908686D
:100DA00020F0400008600099086820F00100086009
:100DB000FFE7009844F20041C4F2000188420ED1DE
:100DC000FFE70099086A40F04000086243F6080116
:100DD000C4F20101086840F0C0000860FFE7009914
:100DE000086840F001000860FFE70098C0698002D1
:100DF000002801D4FFE7F8E7FFE70098C069400248
:100E0000002801D4FFE7F8E701B0704780B582B051
:100E100040F61401C4F60001086820F00F000860D5
:100E2000012000F021FB40F61000C4F6000000682D
:100E300041F610410840884204D1FFE7FF208DF8B9
:100E4000070067E000208DF80600FFE79DF8060028
:100E5000032853DCFFE740F61401C4F600010868DC
:100E600040F00F0008609DF8062042F6C010C0F662
:100E7000000050F82220086890430860012000F02C
:100E8000F3FA00208DF80500FFE79DF80500032820
:100E90002DDCFFE740F61000C4F6000000689DF866
:100EA000052042F6A011C0F6000151F822100842B8
:100EB00016D1FFE740F61401C4F60001086820F0DF
:100EC0000F0008609DF8061042F6B010C0F6000052
:100ED00000EB81009DF80510405C8DF8070019E0DB
:100EE000FFE79DF8050001308DF80500CDE7FFE72D
:100EF0009DF8060001308DF80600A7E740F61401C2
:100F0000C4F60001086820F00F000860FF208DF88B
:100F10000700FFE79DF8070002B080BD80B586B0EE
:100F200000200590FF218DF812100390FFF7BAFD05
:100F3000FFF718FBFFF7D4FEFFF7C6FAFFF788FBB1
:100F400000F0B8F8FFF77EFB20B1FFE7FFF736FBB4
:100F5000FFE7FEE7FFF744FAFFF756FDFFE7FFF76D
:100F6000DFFA8DF813009DF81300FF2806D1FFE784
:100F7000FF208DF81200002003903CE09DF8130044
:100F80009DF81210884225D0FFE79DF813008DF8D8
:100F900012000020019003909DF813108DF80A10A4
:100FA0008DF80B0000F072F80199084600F000F986
:100FB00042F68810C0F60000016842688368EC467B
:100FC0000120CCF800000DF10A0000F017FA00F043
:100FD00023F90FE003981E3003900398B0F5FA6FE1
:100FE00007D3FFE7002003909DF81300FFF742FDB1
:100FF000FFE7FFE7FFE70A2000F036FAAFE700005F
:1010000081B08DF803008DF802108DF801209DF855
:1010100003007F2805DCFFE79DF80200402801DB84
:10102000FFE730E09DF80100012816D1FFE79DF8A9
:10103000022002F00701012000FA01F39DF80300ED
:101040006FF0700101EA0211421840F26601C2F22B
:101050000001885C1843885415E09DF8022002F0D6
:101060000701012000FA01F39DF803006FF0700101
:1010700001EA0211421840F26601C2F20001885CE6
:1010800098438854FFE701B07047000080B582B0F4
:101090008DF807009DF80720002A18BFFF2240F2B4
:1010A0006600C2F200004FF48061FFF70BF902B056
:1010B00080BD000080B584B000F068F86420FFF7C0
:1010C0008DFA0020029000F085F82020019000F0B9
:1010D0007FF9029800F07CF9B02000F079F9C8207F
:1010E00000F076F9029800F073F9102000F070F922
:1010F000402000F06DF9FF2000F04AF8A12000F038
:1011000067F9A62000F064F9A82000F061F93F20FB
:1011100000F05EF9A42000F05BF9D32000F058F94C
:10112000029800F055F9D52000F052F9F02000F0B7
:101130004FF9D92000F04CF9222000F049F9DA20CB
:1011400000F046F9122000F043F9DB2000F040F9EE
:10115000019800F03DF98D2000F03AF9142000F0DC
:1011600037F90120039000F035F80298FFF78EFF61
:1011700000F052F8029A039840F26001C2F20001B6
:101180000A804A80087104B080BD000070470000EA
:1011900080B582B08DF8070081208DF8060000F040
:1011A00017F99DF8070000F013F902B080BD0000A8
:1011B00081B08DF803008DF802109DF8030040F215
:1011C0006001C2F2000108809DF80200488001B071
:1011D0007047000080B582B08DF807009DF80700C9
:1011E00050B1FFE7AF208DF8060040F26001C2F277
:1011F00000010120487109E0AE208DF8060040F2A0
:101200006001C2F2000100204871FFE79DF806006E
:1012100000F0DEF802B080BD80B582B000208DF80D
:101220000700FFE79DF8070007281EDCFFE79DF891
:101230000700B030C0B200F0CBF8002000F0C8F8D2
:10124000102000F0C5F89DF8071040F26600C2F2C9
:10125000000000EBC110802100F0C4F8FFE79DF80A
:10126000070001308DF80700DCE702B080BD000008
:1012700080B58AB09C4613460A4601460C98CDF8C4
:1012800020C0079306928DF817108DF816009DF870
:101290001700202805DBFFE79DF817007F2804DBF7
:1012A000FFE700208DF827008DE0089840B1FFE7A8
:1012B00008999DF81700084410F8200C009003E0EE
:1012C0009DF818000090FFE700988DF8070040F2A5
:1012D0006000C2F2000000889DF8071008448028D2
:1012E0000BDCFFE740F26000C2F2000040889DF88E
:1012F00019100844412804DBFFE700208DF827007F
:1013000061E000200490FFE704989DF819108842DE
:101310004BD2FFE707989DF8171020399DF8192048
:10132000049B11FB023130F8110003900020029061
:10133000FFE702989DF80710884231D2FFE7039833
:10134000029988400004002811D5FFE740F26001AF
:10135000C2F200010888029A10444988049A114494
:101360009DF81620C0B2C9B2FFF74AFE13E040F262
:101370006001C2F200010888029A10444988049A68
:1013800011449DF81620B2FA82F25209C0B2C9B2D5
:10139000FFF736FEFFE7FFE7029801300290C8E74B
:1013A000FFE7049801300490AEE79DF8072040F273
:1013B0006001C2F200010888104408809DF81700FF
:1013C0008DF82700FFE79DF827000AB080BD0000D8
:1013D00080B582B08DF807009DF80700FFF7FAFA94
:1013E00002B080BD80B582B0019000910198BDF837
:1013F0000010FFF7FBFA02B080BD000080B588B096
:101400009C4613460A4601460A98CDF818C0059333
:10141000049203918DF80B00FFE703980078D0B198
:10142000FFE7039800789DF80BC00499059A069B86
:10143000EE46CEF800C0FFF71BFF039909788842FB
:1014400005D0FFE7039800788DF81F0008E00398A7
:1014500001300390E1E7039800788DF81F00FFE763
:101460009DF81F0008B080BD83B00290002001905D
:10147000FFE701980299884212D2FFE7002000900E
:10148000FFE7009840097C2805D8FFE7FFE70098B0
:1014900001300090F5E7FFE7019801300190E8E79F
:1014A00003B07047F1EE100A4FF6FF71C0F2C03181
:1014B00020EA010040F04070E1EE100A70470000A1
:1014C000000000000000000000000000000000001C
:1014D000000000000000000000000000000000000C
:1014E00000000000000C000C000C000C000C000CB4
:1014F000000C000C000C000C000C0000000C000C98
:101500000000000000000000001B001B001B001B6F
:10151000001B0000000000000000000000000000B0
:101520000000000000000000000000008019801989
:1015300080198019C07FC07F80190033C07FC07FB1
:1015400000330033003300330000000000000000CF
:10155000001E003F807580650074003C001E00077F
:101560008005806580658075003F001E00040004D2
:1015700000000000007000D840D8C0D880D90073A7
:101580000006000C801BC036C066C046C006800343
:101590000000000000000000001E003F0033003388
:1015A0000033001E000CC03CC06680638061806315
:1015B000C03E801C0000000000000000000C000C79
:1015C000000C000C000C00000000000000000000F7
:1015D000000000000000000000000000000080008B
:1015E00000010003000600060004000C000C000CC3
:1015F000000C000C000C00040006000600030001B3
:101600008000002000100018000C000C00040006F0
:10161000000600060006000600060004000C000C90
:101620000018001000200000000C002D003F001EDC
:101630000033000000000000000000000000000077
:10164000000000000000000000000000000000009A
:10165000000C000C000C000CC0FFC0FF000C000CC4
:10166000000C000C00000000000000000000000062
:10167000000000000000000000000000000000006A
:101680000000000000000000000C000C000400043A
:101690000008000000000000000000000000000042
:1016A00000000000001E001E0000000000000000FE
:1016B000000000000000000000000000000000002A
:1016C000000000000000000000000000000000001A
:1016D000000C000C000000000000000000030003EC
:1016E00000030006000600060006000C000C000CBB
:1016F000000C001800180018000000000000000096
:10170000001E003F0033806180618061806D806DCC
:101710008061806180610033003F001E0000000096
:10172000000000000006000E001E00360026000625
:101730000006000600060006000600060006000679
:101740000000000000000000001E003F8073806168
:101750008061800100030006000C0018003000606A
:10176000807F807F0000000000000000001C003E21
:10177000006300630003000E000E0003800180017F
:1017800080618073003F001E000000000000000028
:101790000006000E000E001E001E00160036003669
:1017A0000066807F807F00060006000600000000C3
:1017B00000000000007F007F006000600060006E9D
:1017C000007F80638001800180618073003F001E84
:1017D0000000000000000000001E003F8033806118
:1017E0000060006E007F8073806180618061803363
:1017F000003F001E0000000000000000807F807F8E
:1018000080010003000300060006000C000C000C21
:101810000008001800180018000000000000000078
:10182000001E003F8063806180610021001E003F38
:101830008061806180618061003F001E00000000C7
:1018400000000000001E003F007380618061806125
:101850008073803F801D800180610073003F001E07
:101860000000000000000000000000000000000078
:10187000000C000C00000000000000000000000050
:10188000000C000C00000000000000000000000040
:10189000000000000000000C000C00000000000030
:1018A00000000000000C000C000400040008000010
:1018B00000000000000080008003000E003800607F
:1018C0000038000E800380000000000000000000CF
:1018D000000000000000000000000000807F807F0A
:1018E00000000000807F807F0000000000000000FA
:1018F00000000000000000000000000000000040A8
:101900000070001C000780010007001C00700040F0
:10191000000000000000000000000000001F803FE9
:10192000C071C060C000C00180030007000E000C41
:10193000000C0000000C000C000000000000000083
:10194000001E003F803180718063806F806D806DEC
:10195000806F806700600032003E001C00000000C5
:1019600000000000000E000E001B001B001B001BEF
:1019700080318031803F803F8031C060C060C06076
:101980000000000000000000007C007E0063006397
:1019900000630063007E007E00638061806180637D
:1019A000007F007E0000000000000000001E003FDD
:1019B0008031806100600060006000600060006055
:1019C00080618031003F001E000000000000000028
:1019D000007C007F00638063806180618061806142
:1019E0008061806100630063007E007C0000000075
:1019F00000000000807F807F006000600060006069
:101A0000007F007F0060006000600060807F807F5A
:101A10000000000000000000807F807F0060006008
:101A200000600060007F007F006000600060006078
:101A3000006000600000000000000000001E003F89
:101A4000803180610060006000608063806380613D
:101A500080618031803F001E000000000000000017
:101A6000806180618061806180618061807F807F32
:101A70008061806180618061806180610000000020
:101A800000000000003F003F000C000C000C000CA8
:101A9000000C000C000C000C000C000C003F003F80
:101AA0000000000000000000800180018001800132
:101AB00080018001800180018001806180618073EC
:101AC000003F001E0000000000000000C0608061B8
:101AD000006300660066006C0078007C00660066AB
:101AE000006380618061C0600000000000000000B1
:101AF00000600060006000600060006000600060E6
:101B00000060006000600060807F807F0000000057
:101B100000000000C071C071C07BC07AC06AC06A9A
:101B2000C06EC064C060C060C060C060C060C060A3
:101B300000000000000000008071807180798079D1
:101B40008079806D806D806D80658067806780673B
:101B5000806380630000000000000000001E003F62
:101B6000003380618061806180618061806180611B
:101B700080610033003F001E0000000000000000F4
:101B8000007E007F80638061806180618063007F70
:101B9000007E0060006000600060006000000000E7
:101BA00000000000001E003F003380618061806102
:101BB000806180618061806580670033803F401E66
:101BC0000000000000000000007E007F8063806154
:101BD00080618063007F007E006600630063806137
:101BE0008061C0600000000000000000000E001FC7
:101BF0008031803100300038001E00078003806192
:101C000080618031003F001E0000000000000000E5
:101C1000C0FFC0FF000C000C000C000C000C000CFE
:101C2000000C000C000C000C000C000C000000006C
:101C3000000000008061806180618061806180615E
:101C4000806180618061806180618073003F001EDF
:101C50000000000000000000C060C060C060803173
:101C600080318031001B001B001B001B000E000E8A
:101C7000000E00040000000000000000C0C0C0C052
:101C8000C0C0C0C0C0C0C0CC804C804C805E805200
:101C900080528073806180610000000000000000BD
:101CA000C0C0806080610033003B001E000C000C4F
:101CB000001E001F003B80718061C0C0000000005A
:101CC00000000000C0C08061806100330033001E4E
:101CD000001E000C000C000C000C000C000C000C92
:101CE0000000000000000000803F803F80010003F2
:101CF00000030006000C000C001800180030006003
:101D0000807F807F000000000000000F000F000CAB
:101D1000000C000C000C000C000C000C000C000C63
:101D2000000C000C000C000C000C000F000F000059
:101D3000001800180018000C000C000C000C000625
:101D40000006000600060003000300030000000078
:101D50000000001E001E0006000600060006000629
:101D60000006000600060006000600060006000643
:101D70000006001E001E0000000C000C001E0012D9
:101D8000003300338061806100000000000000002B
:101D90000000000000000000000000000000000043
:101DA0000000000000000000000000000000000033
:101DB00000000000000000000000E0FF0000000044
:101DC00000380018000C00000000000000000000B7
:101DD0000000000000000000000000000000000003
:101DE000000000000000000000000000001F803F15
:101DF00080618001801F803F80618063807FC03868
:101E00000000000000000000006000600060006052
:101E1000006E007F8073806180618061806180736B
:101E2000007F006E000000000000000000000000C5
:101E300000000000001E003F8073806100600060B1
:101E400080618073003F001E000000000000000061
:101E50008001800180018001801D803F807380614E
:101E60008061806180618073803F801D0000000080
:101E7000000000000000000000000000001E003F05
:101E800000738061807F807F00608071003F001E52
:101E90000000000000000000C007C00F000C000C94
:101EA000807F807F000C000C000C000C000C000CEC
:101EB000000C000C0000000000000000000000000A
:101EC0000000801D803F807380618061806180613F
:101ED0008073803F801D80018063007F003E000092
:101EE0000060006000600060006F807F8071806132
:101EF000806180618061806180618061000000009C
:101F0000000000000006000600000000003E003E49
:101F10000006000600060006000600060006000691
:101F20000000000000000006000600000000003E67
:101F3000003E000600060006000600060006000639
:101F4000000600060046007E003C000000600060C5
:101F500000600060806100630066006C007C0076B9
:101F6000006300638061C0600000000000000000AA
:101F7000003E003E000600060006000600060006C1
:101F8000000600060006000600060006000000002D
:101F900000000000000000000000000080DDC0FF25
:101FA000C0CEC0CCC0CCC0CCC0CCC0CCC0CCC0CCCF
:101FB0000000000000000000000000000000000021
:101FC000006F807F8071806180618061806180614D
:101FD000806180610000000000000000000000003F
:101FE00000000000001E003F8073806180618061FE
:101FF00080618073003F001E0000000000000000B0
:10200000000000000000006E007F8073806180612E
:10201000806180618073007F006E006000600060FE
:1020200000600000000000000000801D803F807301
:1020300080618061806180618073803F801D80014C
:10204000800180018001000000000000000000000D
:102050000067803F00390030003000300030003031
:102060000030003000000000000000000000000010
:1020700000000000001E803F80610060007F803F04
:1020800080018061007F001E000000000000000051
:102090000000000800180018007F007F00180018DA
:1020A0000018001800180018801F800F00000000A2
:1020B000000000000000000000000000806180615E
:1020C000806180618061806180618063807F803D0C
:1020D0000000000000000000000000000000000000
:1020E000C060803180318031001B001B001B000E5E
:1020F000000E0006000000000000000000000000CC
:102100000000000080DD80DD80DD005500550055B9
:10211000007700770022002200000000000000008D
:102120000000000000000000806100330033001E4A
:10213000000C000C001E0033003380610000000022
:10214000000000000000000000008061806180311C
:1021500000330033001B001B001B000E000E000E9E
:10216000001C007C00700000000000000000000067
:10217000C07FC07F800100030006000C0018003003
:10218000C07FC07F000000000000800380070006C1
:102190000006000600060006000E001C001C000ED3
:1021A0000006000600060006000680078003000601
:1021B00000060006000600060006000600060006EF
:1021C00000060006000600060006000600060006DF
:1021D00000060038003C000C000C000C000C000C49
:1021E000000E00070007000E000C000C000C000C95
:1021F000000C003C0038000000000000000000005F
:10220000000000008038807F0047000000000000D0
:1022100000000000000000000000000000000000BE
:10222000000000000000000000000000000000109E
:10223000001000100010001000100000001000003E
:102240000000002800280028000000000000000016
:1022500000000000000000240024007C002400484E
:10226000007C004800480000000000380054005086
:102270000038001400540054003800100000002002
:1022800000540058003000280054001400080000DA
:10229000000000100028002800100034004800480A
:1022A00000340000000000100010001000000000CA
:1022B00000000000000000000000000800100020E6
:1022C0000020002000200020002000100008002036
:1022D00000100008000800080008000800080010AE
:1022E000002000100038001000280000000000004E
:1022F0000000000000000000000000100010007C42
:1023000000100010000000000000000000000000AD
:10231000000000000000000000100010001000008D
:102320000000000000000000003800000000000075
:10233000000000000000000000000000000000009D
:10234000001000000000000800080010001000103D
:10235000001000200020000000000038004400446D
:102360000054004400440044003800000000001005
:10237000003000500010001000100010001000008D
:102380000000003800440044000400080010002051
:10239000007C000000000038004400040018000425
:1023A0000004004400380000000000080018002865
:1023B00000280048007C0008000800000000007CA5
:1023C0000040004000780004000400440038000091
:1023D00000000038004400400078004400440044FD
:1023E000003800000000007C00040008001000100D
:1023F00000200020002000000000003800440044BD
:102400000038004400440044003800000000003858
:10241000004400440044003C000400440038000034
:10242000000000000000001000000000000000009C
:10243000001000000000000000000000001000007C
:102440000000000000100010001000000000000C50
:10245000003000400030000C0000000000000000D0
:1024600000000000007C0000007C00000000000074
:102470000000000000000060001800040018006068
:1024800000000000000000380044000400080010B4
:102490000010000000100000000000380044004C54
:1024A0000054005C004000400038000000000010B4
:1024B0000028002800280028007C00440044000078
:1024C00000000078004400440078004400440044C8
:1024D0000078000000000038004400400040004048
:1024E0000040004400380000000000700048004434
:1024F0000044004400440048007000000000007CDC
:1025000000400040007C004000400040007C000093
:102510000000007C00400040007800400040004087
:102520000040000000000038004400400040005C13
:10253000004400440038000000000044004400440F
:10254000007C0044004400440044000000000038C7
:1025500000100010001000100010001000380000E3
:10256000000000040004000400040004000400440F
:102570000038000000000044004800500060005097
:1025800000480048004400000000004000400040B7
:102590000040004000400040007C0000000000447B
:1025A000006C006C005400440044004400440000EF
:1025B000000000440064006400540054004C004CCF
:1025C000004400000000003800440044004400447F
:1025D000004400440038000000000078004400443B
:1025E0000044007800400040004000000000003837
:1025F00000440044004400440044005400380004F7
:10260000000000780044004400440078004800487E
:102610000044000000000038004400400030000882
:1026200000040044003800000000007C001000108E
:102630000010001000100010001000000000004406
:1026400000440044004400440044004400380000BA
:102650000000004400440044002800280028001026
:1026600000100000000000440044005400540054D6
:10267000006C00280028000000000044002800280A
:102680000010001000280028004400000000004452
:102690000044002800280010001000100010000066
:1026A0000000007C00040008001000100020004022
:1026B000007C000000000018001000100010001046
:1026C0000010001000100010001800200020001062
:1026D000001000100010000800080000000000308A
:1026E000001000100010001000100010001000106A
:1026F0000030001000280028004400000000000006
:1027000000000000000000000000000000000000C9
:10271000000000000000000000FE0020001000008B
:1027200000000000000000000000000000000000A9
:10273000000000380044003C0044004C003400001D
:102740000000004000400058006400440044006461
:102750000058000000000000000000380044004065
:102760000040004400380000000000040004003471
:10277000004C00440044004C003400000000000005
:10278000000000380044007C004000440038000095
:102790000000000C0010007C001000100010001061
:1027A000001000000000000000000034004C004455
:1027B0000044004C00340004007800400040005801
:1027C0000064004400440044004400000000001085
:1027D0000000007000100010001000100010000039
:1027E0000000001000000070001000100010001029
:1027F0000010001000E00040004000480050006061
:10280000005000480044000000000070001000105C
:102810000010001000100010001000000000000068
:10282000000000780054005400540054005400008C
:102830000000000000000058006400440044004410
:102840000044000000000000000000380044004484
:102850000044004400380000000000000000005860
:102860000064004400440064005800400040000040
:1028700000000034004C00440044004C00340004CC
:1028800000040000000000580064004000400040C8
:10289000004000000000000000000038004400304C
:1028A00000080044003800000000002000200078EC
:1028B0000020002000200020001800000000000080
:1028C00000000044004400440044004C0034000078
:1028D00000000000000000440044002800280028F8
:1028E00000100000000000000000005400540054DC
:1028F000006C0028002800000000000000000044D8
:102900000028001000100028004400000000000013
:1029100000000044004400280028001000100010AF
:10292000006000000000007C000800100020004053
:10293000007C0000000000180010001000100020B3
:1029400000200010001000100018001000100010EF
:1029500000100010001000100010001000100030D7
:1029600000100010001000080008001000100010F7
:1029700000300000000000000074004C0000000067
:1029800000000000000000000B120000BE14000850
:1029900000000000070A00001A22000800000000E2
:1029A00010000000000400000008000000100000FB
:1029B0003132334134353642373839432A302344B3
:1029C00001000000020000000400000008000000F8
:1029D0004B65797061643A00E82900080000002026
:0829E000800A0000F00100086C
:040000050800018965
:00000001FF
